{
  "contractName": "FileStorage",
  "abi": [
    {
      "anonymous": false,
      "inputs": [
        {
          "indexed": true,
          "internalType": "address",
          "name": "uploader",
          "type": "address"
        },
        {
          "indexed": false,
          "internalType": "string",
          "name": "ipfsHash",
          "type": "string"
        },
        {
          "indexed": false,
          "internalType": "string",
          "name": "fileName",
          "type": "string"
        }
      ],
      "name": "FileUploaded",
      "type": "event"
    },
    {
      "inputs": [
        {
          "internalType": "address",
          "name": "",
          "type": "address"
        },
        {
          "internalType": "uint256",
          "name": "",
          "type": "uint256"
        }
      ],
      "name": "userFiles",
      "outputs": [
        {
          "internalType": "string",
          "name": "ipfsHash",
          "type": "string"
        },
        {
          "internalType": "string",
          "name": "fileName",
          "type": "string"
        },
        {
          "internalType": "address",
          "name": "uploader",
          "type": "address"
        }
      ],
      "stateMutability": "view",
      "type": "function",
      "constant": true
    },
    {
      "inputs": [
        {
          "internalType": "string",
          "name": "_ipfsHash",
          "type": "string"
        },
        {
          "internalType": "string",
          "name": "_fileName",
          "type": "string"
        }
      ],
      "name": "storeFile",
      "outputs": [],
      "stateMutability": "nonpayable",
      "type": "function"
    },
    {
      "inputs": [
        {
          "internalType": "address",
          "name": "_user",
          "type": "address"
        }
      ],
      "name": "getFiles",
      "outputs": [
        {
          "components": [
            {
              "internalType": "string",
              "name": "ipfsHash",
              "type": "string"
            },
            {
              "internalType": "string",
              "name": "fileName",
              "type": "string"
            },
            {
              "internalType": "address",
              "name": "uploader",
              "type": "address"
            }
          ],
          "internalType": "struct FileStorage.FileData[]",
          "name": "",
          "type": "tuple[]"
        }
      ],
      "stateMutability": "view",
      "type": "function",
      "constant": true
    }
  ],
  "bytecode": "0x608060405234801561001057600080fd5b50610c1f806100206000396000f3fe608060405234801561001057600080fd5b50600436106100415760003560e01c806320de107014610046578063433bf37b14610062578063718f38a614610092575b600080fd5b610060600480360381019061005b919061075b565b6100c4565b005b61007c600480360381019061007791906106f6565b610233565b6040516100899190610937565b60405180910390f35b6100ac60048036038101906100a7919061071f565b61044a565b6040516100bb93929190610990565b60405180910390f35b6000803373ffffffffffffffffffffffffffffffffffffffff1673ffffffffffffffffffffffffffffffffffffffff16815260200190815260200160002060405180606001604052808481526020018381526020013373ffffffffffffffffffffffffffffffffffffffff16815250908060018154018082558091505060019003906000526020600020906003020160009091909190915060008201518160000190805190602001906101789291906105c1565b5060208201518160010190805190602001906101959291906105c1565b5060408201518160020160006101000a81548173ffffffffffffffffffffffffffffffffffffffff021916908373ffffffffffffffffffffffffffffffffffffffff16021790555050503373ffffffffffffffffffffffffffffffffffffffff167f2f82310531f67ec4eae39b4f0d4e2ea9a5e6da4bb8f084adb414ec441b761c5d8383604051610227929190610959565b60405180910390a25050565b60606000808373ffffffffffffffffffffffffffffffffffffffff1673ffffffffffffffffffffffffffffffffffffffff168152602001908152602001600020805480602002602001604051908101604052809291908181526020016000905b8282101561043f57838290600052602060002090600302016040518060600160405290816000820180546102c690610b1a565b80601f01602080910402602001604051908101604052809291908181526020018280546102f290610b1a565b801561033f5780601f106103145761010080835404028352916020019161033f565b820191906000526020600020905b81548152906001019060200180831161032257829003601f168201915b5050505050815260200160018201805461035890610b1a565b80601f016020809104026020016040519081016040528092919081815260200182805461038490610b1a565b80156103d15780601f106103a6576101008083540402835291602001916103d1565b820191906000526020600020905b8154815290600101906020018083116103b457829003601f168201915b505050505081526020016002820160009054906101000a900473ffffffffffffffffffffffffffffffffffffffff1673ffffffffffffffffffffffffffffffffffffffff1673ffffffffffffffffffffffffffffffffffffffff168152505081526020019060010190610293565b505050509050919050565b6000602052816000526040600020818154811061046657600080fd5b90600052602060002090600302016000915091505080600001805461048a90610b1a565b80601f01602080910402602001604051908101604052809291908181526020018280546104b690610b1a565b80156105035780601f106104d857610100808354040283529160200191610503565b820191906000526020600020905b8154815290600101906020018083116104e657829003601f168201915b50505050509080600101805461051890610b1a565b80601f016020809104026020016040519081016040528092919081815260200182805461054490610b1a565b80156105915780601f1061056657610100808354040283529160200191610591565b820191906000526020600020905b81548152906001019060200180831161057457829003601f168201915b5050505050908060020160009054906101000a900473ffffffffffffffffffffffffffffffffffffffff16905083565b8280546105cd90610b1a565b90600052602060002090601f0160209004810192826105ef5760008555610636565b82601f1061060857805160ff1916838001178555610636565b82800160010185558215610636579182015b8281111561063557825182559160200191906001019061061a565b5b5090506106439190610647565b5090565b5b80821115610660576000816000905550600101610648565b5090565b600061067761067284610a06565b6109d5565b90508281526020810184848401111561068f57600080fd5b61069a848285610ad8565b509392505050565b6000813590506106b181610bbb565b92915050565b600082601f8301126106c857600080fd5b81356106d8848260208601610664565b91505092915050565b6000813590506106f081610bd2565b92915050565b60006020828403121561070857600080fd5b6000610716848285016106a2565b91505092915050565b6000806040838503121561073257600080fd5b6000610740858286016106a2565b9250506020610751858286016106e1565b9150509250929050565b6000806040838503121561076e57600080fd5b600083013567ffffffffffffffff81111561078857600080fd5b610794858286016106b7565b925050602083013567ffffffffffffffff8111156107b157600080fd5b6107bd858286016106b7565b9150509250929050565b60006107d383836108e0565b905092915050565b6107e481610a9c565b82525050565b6107f381610a9c565b82525050565b600061080482610a46565b61080e8185610a69565b93508360208202850161082085610a36565b8060005b8581101561085c578484038952815161083d85826107c7565b945061084883610a5c565b925060208a01995050600181019050610824565b50829750879550505050505092915050565b600061087982610a51565b6108838185610a7a565b9350610893818560208601610ae7565b61089c81610baa565b840191505092915050565b60006108b282610a51565b6108bc8185610a8b565b93506108cc818560208601610ae7565b6108d581610baa565b840191505092915050565b600060608301600083015184820360008601526108fd828261086e565b91505060208301518482036020860152610917828261086e565b915050604083015161092c60408601826107db565b508091505092915050565b6000602082019050818103600083015261095181846107f9565b905092915050565b6000604082019050818103600083015261097381856108a7565b9050818103602083015261098781846108a7565b90509392505050565b600060608201905081810360008301526109aa81866108a7565b905081810360208301526109be81856108a7565b90506109cd60408301846107ea565b949350505050565b6000604051905081810181811067ffffffffffffffff821117156109fc576109fb610b7b565b5b8060405250919050565b600067ffffffffffffffff821115610a2157610a20610b7b565b5b601f19601f8301169050602081019050919050565b6000819050602082019050919050565b600081519050919050565b600081519050919050565b6000602082019050919050565b600082825260208201905092915050565b600082825260208201905092915050565b600082825260208201905092915050565b6000610aa782610aae565b9050919050565b600073ffffffffffffffffffffffffffffffffffffffff82169050919050565b6000819050919050565b82818337600083830152505050565b60005b83811015610b05578082015181840152602081019050610aea565b83811115610b14576000848401525b50505050565b60006002820490506001821680610b3257607f821691505b60208210811415610b4657610b45610b4c565b5b50919050565b7f4e487b7100000000000000000000000000000000000000000000000000000000600052602260045260246000fd5b7f4e487b7100000000000000000000000000000000000000000000000000000000600052604160045260246000fd5b6000601f19601f8301169050919050565b610bc481610a9c565b8114610bcf57600080fd5b50565b610bdb81610ace565b8114610be657600080fd5b5056fea2646970667358221220cb17a6c6b6bc651f6be24e334ab6718931595f1650a39658d962c1182645620164736f6c63430008000033",
  "immutableReferences": {},
  "source": "// SPDX-License-Identifier: MIT\r\npragma solidity ^0.8.0;\r\n\r\ncontract FileStorage {\r\n    struct FileData {\r\n        string ipfsHash;\r\n        string fileName;\r\n        address uploader;\r\n    }\r\n\r\n    mapping(address => FileData[]) public userFiles;\r\n\r\n    event FileUploaded(address indexed uploader, string ipfsHash, string fileName);\r\n\r\n    function storeFile(string memory _ipfsHash, string memory _fileName) public {\r\n        userFiles[msg.sender].push(FileData(_ipfsHash, _fileName, msg.sender));\r\n        emit FileUploaded(msg.sender, _ipfsHash, _fileName);\r\n    }\r\n\r\n    function getFiles(address _user) public view returns (FileData[] memory) {\r\n        return userFiles[_user];\r\n    }\r\n}\r\n",
  "sourcePath": "C:\\Users\\mkman\\OneDrive\\Desktop\\ABC_Project_All\\z. For commit in github\\S25_TrustResearch\\Codes\\blockchain\\contracts\\FileStorage.sol",
  "compiler": {
    "name": "solc",
    "version": "0.8.0+commit.c7dfd78e.Emscripten.clang"
  },
  "schemaVersion": "3.4.16",
  "updatedAt": "2025-04-08T19:33:48.105Z",
  "networkType": "ethereum",
  "devdoc": {
    "kind": "dev",
    "methods": {},
    "version": 1
  },
  "userdoc": {
    "kind": "user",
    "methods": {},
    "version": 1
  }
}